:100000000C9462000C948A000C948A000C948A0070
:100010000C948A000C948A000C948A000C948A0038
:100020000C948A000C948A000C948A000C948A0028
:100030000C948A000C948A000C948A000C948A0018
:100040000C9493050C948A000C948A000C948A00FA
:100050000C948A000C948A000C948A000C948A00F8
:100060000C94DD050C948A00000000002400270099
:100070002A0000000000250028002B0000000000DE
:1000800023002600290004040404040404040202DA
:100090000202020203030303030301020408102007
:1000A0004080010204081020010204081020000012
:1000B0000008000201000003040700000000000027
:1000C0000000FC0611241FBECFEFD8E0DEBFCDBF7D
:1000D00011E0A0E0B1E0E2E3F8E102C005900D928A
:1000E000A035B107D9F722E0A0E5B1E001C01D922B
:1000F000A733B207E1F710E0C2E6D0E004C02197D1
:10010000FE010E94110CC136D107C9F70E941C07DD
:100110000C94170C0C94000008950895AF92BF92B0
:10012000CF92DF92EF92FF920F931F93CF93DF93C3
:100130006C017B018B01040F151FEB015E01AE18F2
:10014000BF08C017D10759F06991D601ED91FC9114
:100150000190F081E02DC6010995892B79F7C50141
:10016000DF91CF911F910F91FF90EF90DF90CF9093
:10017000BF90AF900895833081F028F4813099F0DA
:100180008230A9F008958730A9F08830C9F0843012
:10019000B1F4809180008F7D03C0809180008F77C3
:1001A00080938000089584B58F7784BD089584B5C9
:1001B0008F7DFBCF8091B0008F778093B000089542
:1001C0008091B0008F7DF9CFCF93DF93282F30E05F
:1001D000F901E255FF4F8491F901E656FF4FD491A2
:1001E000F901EA57FF4FC491CC23A1F081110E947D
:1001F000BB00EC2FF0E0EE0FFF1FE458FF4FA5917E
:10020000B491EC91ED2381E090E009F480E0DF917E
:10021000CF91089580E090E0FACF1F93CF93DF93C2
:10022000282F30E0F901E255FF4F8491F901E6569D
:10023000FF4FD491F901EA57FF4FC491CC23A9F0A5
:10024000162F81110E94BB00EC2FF0E0EE0FFF1F74
:10025000EE58FF4FA591B4918FB7F894EC9111111E
:1002600008C0D095DE23DC938FBFDF91CF911F9123
:100270000895DE2BF8CFCF93DF9390E0FC01E65694
:10028000FF4F24918A579F4FFC0184918823D1F01E
:1002900090E0880F991FFC01E859FF4FA591B49198
:1002A000FC01EE58FF4FC591D49161110EC09FB76C
:1002B000F8948C91E22FE0958E238C932881E22391
:1002C000E8839FBFDF91CF9108958FB7F894EC91A9
:1002D000E22BEC938FBFF6CF3FB7F89480910702E3
:1002E00090910802A0910902B0910A0226B5A89B3C
:1002F00005C02F3F19F00196A11DB11D3FBFBA2FB8
:10030000A92F982F8827BC01CD01620F711D811D77
:10031000911D42E0660F771F881F991F4A95D1F7FC
:1003200008958F929F92AF92BF92CF92DF92EF92F9
:10033000FF924B015C010E946C016B017C010E94E9
:100340006C016C197D098E099F09683E7340810517
:100350009105A8F321E0821A9108A108B10888EE5E
:10036000C80E83E0D81EE11CF11C81149104A10485
:10037000B10429F7FF90EF90DF90CF90BF90AF903E
:100380009F908F900895089520919101260F332713
:10039000331F21323105ECF42091DA01FC0190E0A9
:1003A00080E0243069F082E00895A09191012191CC
:1003B000AC014F585E4FA40FB52FB11D2C93019681
:1003C000861798F380919101680F6093910180E006
:1003D000089581E008951092DA0181E08093D901B7
:1003E0001092B40161E082E10E940D0161E083E1BD
:1003F0000E940D01E9EBF0E080818E7F8083808197
:100400008D7F808388E48093B80085E48093BC006E
:100410000895CF93DF9391E0909370018823B9F012
:10042000C091B800D091BA008091BC008A7B8093C3
:10043000BC0060E082E10E940D0160E083E10E9467
:100440000D010E94EB01D093BA00C093B800DF9178
:10045000CF9108950895E091120280911102E8175A
:1004600030F4F0E0E05BFE4F808190E008958FEF84
:100470009FEF089590911202809111022FEF3FEFAC
:10048000981748F4E92FF0E0E05BFE4F208130E060
:100490009F5F90931202C90108958091110290917B
:1004A0001202891B990B0895CF92DF92EF92FF926F
:1004B0000F931F93CF93DF937C01CB018A0120918F
:1004C000E001222389F0EB016B01C40ED51ECC158F
:1004D000DD0569F06991D701ED91FC910190F08102
:1004E000E02DC7010995F3CF642F0E94C401C80114
:1004F000DF91CF911F910F91FF90EF90DF90CF9000
:100500000895CF93DF931F92CDB7DEB76983209113
:10051000E0012223F9F020910F02203258F021E06F
:1005200030E0FC013383228390E080E00F90DF9184
:10053000CF91089580911002E82FF0E0EF51FE4F27
:10054000998190838F5F8093100280930F0281E0E6
:1005500090E0ECCF61E0CE0101960E94C401F7CF9C
:10056000CF92DF92EF92FF920F931F93CF93DF937F
:10057000FC01C48121E02093E001C09301021092AC
:10058000100210920F028385682B8FE192E00E9487
:100590008102D0910F02D13208F092C00E946C010A
:1005A0006B017C018091DA01811165C082E080934A
:1005B000DA0181E08093D9018FEF8093D801109206
:1005C000D701D093D601A1EEB1E0E6EBF1E080E0F7
:1005D000D81385C01092B5018091B501CC0FC82BFE
:1005E000C093B5018091B401813009F07CC01092B4
:1005F000B4010E946C016B017C018091B501809374
:10060000BB008091DC019091DD01A091DE01B091F1
:10061000DF01892B8A2B8B2B99F00E946C010091B2
:10062000DC011091DD012091DE013091DF016C19B8
:100630007D098E099F090617170728073907E0F17A
:100640008091BC0083FDD9CF85EC8093BC000E94D3
:100650006C016B017C018091DA01823009F445C0A4
:100660008091D8018F3F61F18091D801803241F1B2
:100670008091D80125C08091DC019091DD01A0918D
:10068000DE01B091DF01892B8A2B8B2B09F48ACFF5
:100690000E946C010091DC011091DD012091DE01CE
:1006A0003091DF016C197D098E099F090617170724
:1006B0002807390708F076CF8091DB010E940902F4
:1006C0001092100210920F021092E001DF91CF9170
:1006D0001F910F91FF90EF90DF90CF9008959D9123
:1006E00091938F5F75CF85EEB0CF8091DC019091B3
:1006F000DD01A091DE01B091DF01892B8A2B8B2BCC
:1007000009F4A9CF0E946C010091DC011091DD0178
:100710002091DE013091DF016C197D098E099F095E
:10072000061717072807390708F095CFC5CF90E0BF
:1007300080E00895FC0101900020E9F73197AF01B6
:10074000481B590BBC018BE292E00C948E008F92F7
:100750009F92AF92BF920F931F93CF93DF93CDB72A
:10076000DEB7A1970FB6F894DEBF0FBECDBF19A2BA
:10077000423008F44AE08E010F5D1F4F842E912C09
:10078000B12CA12CA50194010E94EF0BE62FB90119
:10079000CA01EA30F4F4E05DD801EE938D01232B19
:1007A000242B252B79F790E080E0109719F0CD01EC
:1007B0000E949A03A1960FB6F894DEBF0FBECDBF7C
:1007C000DF91CF911F910F91BF90AF909F908F902D
:1007D0000895E95CE1CF0F931F93CF938C01C62F4F
:1007E0000E94B0026C2F6460C8010E94B0026C2F9E
:1007F0006B7FC8010E94B00283EC90E00197F1F793
:10080000CF911F910F9108950F931F93CF93DF9373
:100810008C01D62FC42F607F642B0E94EB0380E1F4
:10082000D89FB00111246C2BC801DF91CF911F918B
:100830000F910C94EB0341E00E94040481E090E0EE
:100840000895CF92DF92EF92FF926C01990FEE081C
:10085000FF08F7FE16C041E06DE28BE292E00E94D5
:10086000040466277727CB016C197D098E099F093F
:100870004AE00E94A7030196FF90EF90DF90CF908F
:1008800008954AE0C701B601FF90EF90DF90CF9046
:100890000C94A703CF93DF93CDB7DEB728970FB69D
:1008A000F894DEBF0FBECDBF98E0E0E0F1E0DE01DE
:1008B000119601900D929A95E1F790913302961757
:1008C00008F46FEF262F30E0220F331F41E050E095
:1008D0004C0F5D1F240F351FF9016081680F6068A0
:1008E00040E08BE292E028960FB6F894DEBF0FBE90
:1008F000CDBFDF91CF910C9404044F925F926F9221
:100900007F928F929F92AF92BF92CF92DF92EF929F
:10091000FF920F931F93CF936B017C01742EAC0158
:100920009B010E94EA0B882399F086E291E0CF9127
:100930001F910F91FF90EF90DF90CF90BF90AF90FD
:100940009F908F907F906F905F904F900C949A0340
:1009500046015701E894B7F82FEF3FEF4FE75FE705
:10096000C501B4010E94EA0B81110DC02FEF3FEFCA
:100970004FE75FE7C501B4010E94200A18161CF476
:100980008AE291E0D4CF2FEF3FEF4FE75FE4C7015A
:10099000B6010E94780B18161CF48EE291E0C7CFC6
:1009A0002FEF3FEF4FE75FECC701B6010E94200A2F
:1009B00087FDF3CF20E030E0A901C701B6010E9416
:1009C000200A10E000E087FF0CC041E06DE28BE2FE
:1009D00092E00E940404F7FAF094F7F8F09401E032
:1009E00010E0C0E060E070E080E09FE37C1641F042
:1009F00020E030E040E251E40E94250ACF5FF6CFCC
:100A0000A70196010E94B4094B015C010E94970A5C
:100A10002B013C014AE00E94A703080F191FCC23B9
:100A2000C9F1C301B2010E94C60A9B01AC01C50114
:100A3000B4010E94B3094B015C0141E06EE28BE21C
:100A400092E00E9404040F5F1F4FC15018F120E094
:100A500030E040E251E4C501B4010E947D0B2B015E
:100A60003C010E94970A4B01B12CA12C4AE0C50120
:100A7000B4010E94A703080F191FC501B4010E9409
:100A8000C60A9B01AC01C301B2010E94B3094B012C
:100A90005C01DBCFC801CF911F910F91FF90EF90C8
:100AA000DF90CF90BF90AF909F908F907F906F908E
:100AB0005F904F90089585ED8093BC008091DC019C
:100AC0009091DD01A091DE01B091DF010796A11D9B
:100AD000B11D23E0B695A795979587952A95D1F7EF
:100AE0002091BC0024FD03C01092DA0108954091CA
:100AF000DC015091DD016091DE017091DF01452B39
:100B0000462B472B69F30097A105B10541F025E37A
:100B10002A95F1F700000197A109B109E1CF809171
:100B2000DB010C9409021F920F920FB60F92112451
:100B30002F933F938F939F93AF93BF938091030223
:100B400090910402A0910502B09106023091020238
:100B500023E0230F2D3758F50196A11DB11D2093D9
:100B600002028093030290930402A0930502B093C3
:100B700006028091070290910802A0910902B091AB
:100B80000A020196A11DB11D8093070290930802ED
:100B9000A0930902B0930A02BF91AF919F918F91E8
:100BA0003F912F910F900FBE0F901F90189526E840
:100BB000230F0296A11DB11DD2CF1F920F920FB627
:100BC0000F9211242F933F934F935F936F937F93D3
:100BD0008F939F93AF93BF93EF93FF938091B9004F
:100BE000887F803609F44AC0F0F5883209F4A7C03E
:100BF00018F5803109F49BC0B8F4882309F4F9C0D2
:100C0000883009F494C0FF91EF91BF91AF919F910B
:100C10008F917F916F915F914F913F912F910F90A5
:100C20000FBE0F901F901895883109F488C080324C
:100C300051F78093D80114C0803409F49DC040F46A
:100C40008033B9F38833F9F68093D80185ECB0C0CE
:100C5000803509F485C0883509F496C0883499F642
:100C60000E945B05D0CF883909F48CC038F58837ED
:100C700029F050F4883611F0803729F683E080930C
:100C8000DA011092B30157C0883809F47BC080396B
:100C900019F0803809F0B7CF8091B301803208F0A5
:100CA00071C0E091B30181E08E0F8093B301809118
:100CB000BB00F0E0ED56FE4F80833DC0803B39F035
:100CC000E0F4803A09F479C0883A09F09CCF84E0D6
:100CD0008093DA011092920110929101E0910D023D
:100CE000F0910E0209958091910181110FC081E070
:100CF000809391011092710109C0803C09F4A6CF44
:100D0000883C09F4A3CF883B09F07DCFE0919201A4
:100D100081E08E0F80939201F0E0EF58FE4F8081CA
:100D20008093BB00909192018091910129C08091A4
:100D3000B5018093BB0085EC8093BC0064CF90919B
:100D4000D7018091D601981758F5E091D70181E03D
:100D50008E0F8093D701F0E0EA54FE4F8081E9CFF7
:100D6000E091D70181E08E0F8093D7018091BB0085
:100D7000F0E0EA54FE4F80839091D7018091D60134
:100D80009817C8F285E8D8CFE091D70181E08E0F9F
:100D90008093D7018091BB00F0E0EA54FE4F80833E
:100DA0008091D90181115CCF81E08093B40184EA04
:100DB0008093BC001092DA0126CF85EC8093BC00B2
:100DC0001092DA018091B301803230F4E091B301E6
:100DD000F0E0ED56FE4F10826091B30170E0E091BB
:100DE0000B02F0910C0283E991E009951092B30196
:100DF0000ACF1092D80134CFEFE1F2E013821282D1
:100E000088EE93E0A0E0B0E084839583A683B78367
:100E10008CE091E091838083EBE2F2E01382128216
:100E20008EE191E09183808387E2848380E18187F2
:100E300082E0828713860895789484B5826084BDA9
:100E400084B5816084BD85B5826085BD85B58160CE
:100E500085BD80916E00816080936E00109281004C
:100E60008091810082608093810080918100816007
:100E700080938100809180008160809380008091C8
:100E8000B10084608093B1008091B0008160809354
:100E9000B00080917A00846080937A0080917A001B
:100EA000826080937A0080917A00816080937A00DA
:100EB00080917A00806880937A001092C10060E08F
:100EC00081E00E943B0160E082E00E943B0160E023
:100ED00084E00E943B0160E085E00E943B0160E00D
:100EE00086E00E943B0160E087E00E943B0161E0F8
:100EF00083E00E943B0161E089E00E943B0161E0E8
:100F00008AE00E943B01109212021092110210928C
:100F1000100210920F020E94EB018CE890E0909377
:100F20000E0280930D028DE890E090930C02809366
:100F30000B021092300280913502823018F098E056
:100F4000909330028093330262E370E080E090E09F
:100F50000E949101609136028BE292E00E94B00201
:100F600068EE73E080E090E00E94910160E38BE224
:100F700092E00E94EB03CBE4D6E4CE010197F1F7B7
:100F800060E38BE292E00E94EB032197F1F760E3CC
:100F90008BE292E00E94EB0383E592E00197F1F788
:100FA00060E28BE292E00E94EB03609130026062AB
:100FB00040E08BE292E00E94040484E080933102DE
:100FC00040E06CE08BE292E00E94040440E061E0CB
:100FD0008BE292E00E940404CBE3DFE1CE010197B3
:100FE000F1F782E08093320240E066E08BE292E02B
:100FF0000E94040440E062E08BE292E00E9404045C
:101000002197F1F738E0932E00E010E0909236023D
:1010100060E08BE292E00E94B00260E080E00E941B
:101020004A0482E391E00E949A0360E088E00E9413
:101030004A04C0901702D0901802E0901902F09074
:101040001A0220E030E04AE754E4C701B6010E94EA
:10105000780B87FD27C160E088E00E944A0420E009
:1010600030E04AE754E4C701B6010E94250A42E095
:101070000E947D0460E08CE00E944A048AE391E0D3
:101080000E949A0361E080E00E944A0484E491E0B7
:101090000E949A0361E085E00E944A048091150253
:1010A000909116020E94210461E089E00E944A04A6
:1010B0008BE491E00E949A0361E08CE00E944A0474
:1010C00080911D0290911E02019731F480911B02C4
:1010D00090911C020E94210481E00E94E40001978B
:1010E000D1F4C0911D02D0911E0264EF71E080E046
:1010F00090E00E94910181E090E0CD2B11F090E012
:1011000080E090931E0280931D0264EF71E080E006
:1011100090E00E94910180911D0290911E02019722
:1011200009F0CCC085E00E94E400019781F464EFEF
:1011300071E080E090E00E94910180911B0290910B
:101140001C028C599F4F90931C0280931B0286E0D7
:101150000E94E400019781F464EF71E080E090E088
:101160000E94910180911B0290911C02845691096A
:1011700090931C0280931B0282E00E94E40001977E
:1011800079F464EF71E080E090E00E949101809139
:10119000150290911602C296909316028093150242
:1011A00084E00E94E400019779F464EF71E080E04C
:1011B00090E00E9491018091150290911602C297D1
:1011C000909316028093150287E00E94E40010922B
:1011D000140210921302019709F0BEC064EF71E08F
:1011E00080E090E00E94910161E08AE00E940D01A0
:1011F00068EB7BE080E090E00E949101C0911302D7
:10120000D09114028091150290911602C817D90747
:1012100009F498C061E089E00E940D0161E083E07B
:101220000E940D0160911B0270911C02072E000CA0
:10123000880B990B0E94C80A20911702309118025E
:101240004091190250911A020E94B4090E94970A13
:101250006B015B0182E0C816D10440F0C601880F23
:10126000991F880F991F05970197F1F760E089E0B2
:101270000E940D0160E083E00E940D0182E0A8164B
:10128000B10450F0CC0CDD1CCC0CDD1C85E0C81A80
:10129000D108C6010197F1F72196D0931402C093AB
:1012A0001302ACCF42E0C701B6010E947D0460E0AA
:1012B0008CE00E944A048FE391E0E2CE85E00E9438
:1012C000E4000197E1F464EF71E080E090E00E94B7
:1012D000910120E030E048EC52E4609117027091F7
:1012E00018028091190290911A020E94B409609329
:1012F0001702709318028093190290931A0286E0E5
:101300000E94E400019709F037CF64EF71E080E0BC
:1013100090E00E94910120E030E048EC52E46091BE
:101320001702709118028091190290911A020E947E
:10133000B309609317027093180280931902909377
:101340001A021ACF60ED77E080E090E00E949101F0
:1013500060E08AE00E940D010115110509F456CEE6
:101360000E94000053CE5058BB27AA270E94CB09E9
:101370000C943E0B0E94300B38F00E94370B20F08B
:1013800039F49F3F19F426F40C942D0B0EF4E095DC
:10139000E7FB0C94270BE92F0E944F0B58F3BA1769
:1013A000620773078407950720F079F4A6F50C947B
:1013B000710B0EF4E0950B2EBA2FA02D0B01B90185
:1013C00090010C01CA01A0011124FF27591B99F0BB
:1013D000593F50F4503E68F11A16F040A22F232FC7
:1013E000342F4427585FF3CF469537952795A79517
:1013F000F0405395C9F77EF41F16BA0B620B730BBE
:10140000840BBAF09150A1F0FF0FBB1F661F771F2E
:10141000881FC2F70EC0BA0F621F731F841F48F4E3
:10142000879577956795B795F7959E3F08F0B0CF6C
:101430009395880F08F09927EE0F97958795089553
:101440000E94030B08F481E008950E94390A0C946D
:101450003E0B0E94370B58F00E94300B40F029F4ED
:101460005F3F29F00C94270B51110C94720B0C94D4
:101470002D0B0E944F0B68F39923B1F3552391F381
:10148000951B550BBB27AA2762177307840738F0F3
:101490009F5F5F4F220F331F441FAA1FA9F335D050
:1014A0000E2E3AF0E0E832D091505040E695001C04
:1014B000CAF72BD0FE2F29D0660F771F881FBB1FBE
:1014C000261737074807AB07B0E809F0BB0B802D9C
:1014D000BF01FF2793585F4F3AF09E3F510578F0C8
:1014E0000C94270B0C94720B5F3FE4F3983ED4F3FB
:1014F000869577956795B795F7959F5FC9F7880F9C
:10150000911D9695879597F90895E1E0660F771FED
:10151000881FBB1F621773078407BA0720F0621B7E
:10152000730B840BBA0BEE1F88F7E09508950E94A9
:10153000570B88F09F5798F0B92F9927B751B0F003
:10154000E1F0660F771F881F991F1AF0BA95C9F747
:1015500014C0B13091F00E94710BB1E008950C9469
:10156000710B672F782F8827B85F39F0B93FCCF31C
:10157000869577956795B395D9F73EF490958095C4
:10158000709561957F4F8F4F9F4F0895E89409C0E4
:1015900097FB3EF490958095709561957F4F8F4FA6
:1015A0009F4F9923A9F0F92F96E9BB279395F695BC
:1015B000879577956795B795F111F8CFFAF4BB0F3A
:1015C00011F460FF1BC06F5F7F4F8F4F9F4F16C09E
:1015D000882311F096E911C0772321F09EE8872F28
:1015E000762F05C0662371F096E8862F70E060E0E4
:1015F0002AF09A95660F771F881FDAF7880F96955D
:10160000879597F90895990F0008550FAA0BE0E800
:10161000FEEF16161706E807F907C0F012161306B4
:10162000E407F50798F0621B730B840B950B39F4F4
:101630000A2661F0232B242B252B21F408950A265A
:1016400009F4A140A6958FEF811D811D089597F99A
:101650009F6780E870E060E008959FEF80EC089558
:1016600000240A9416161706180609060895002481
:101670000A9412161306140605060895092E0394FB
:10168000000C11F4882352F0BB0F40F4BF2B11F46F
:1016900060FF04C06F5F7F4F8F4F9F4F089557FDCE
:1016A0009058440F551F59F05F3F71F04795880FD0
:1016B00097FB991F61F09F3F79F087950895121667
:1016C00013061406551FF2CF4695F1DF08C0161613
:1016D00017061806991FF1CF8695710561050894C4
:1016E0000895E894BB2766277727CB0197F90895DB
:1016F0000E94030B08F48FEF08950E94900B0C9446
:101700003E0B0E94300B38F00E94370B20F09523DF
:1017100011F00C94270B0C942D0B11240C94720BCC
:101720000E944F0B70F3959FC1F3950F50E0551F2A
:10173000629FF001729FBB27F00DB11D639FAA2726
:10174000F00DB11DAA1F649F6627B00DA11D661F75
:10175000829F2227B00DA11D621F739FB00DA11D96
:10176000621F839FA00D611D221F749F3327A00D50
:10177000611D231F849F600D211D822F762F6A2FEC
:1017800011249F5750409AF0F1F088234AF0EE0F51
:10179000FF1FBB1F661F771F881F91505040A9F77E
:1017A0009E3F510580F00C94270B0C94720B5F3F09
:1017B000E4F3983ED4F3869577956795B795F795BA
:1017C000E7959F5FC1F7FE2B880F911D9695879532
:1017D00097F908950E94030B880B990B0895A1E2D5
:1017E0001A2EAA1BBB1BFD010DC0AA1FBB1FEE1F9B
:1017F000FF1FA217B307E407F50720F0A21BB30BE6
:10180000E40BF50B661F771F881F991F1A9469F761
:1018100060957095809590959B01AC01BD01CF01BD
:101820000895EE0FFF1F0590F491E02D0994F894B0
:02183000FFCFE8
:101832000000400014005400000000008102540225
:1018420097032A024D023A022B02000000001B04F9
:101852008E009703C3016E616E00696E66006F763B
:10186200660054656D706F3A200020206D53002091
:1018720020755300517464653A2000445A3A0000BE
:00000001FF
